{
  "contractName": "BCShopCourier",
  "abi": [
    {
      "anonymous": false,
      "inputs": [
        {
          "indexed": false,
          "internalType": "string",
          "name": "status",
          "type": "string"
        },
        {
          "indexed": false,
          "internalType": "string",
          "name": "location",
          "type": "string"
        }
      ],
      "name": "deliverItemEvent",
      "type": "event"
    },
    {
      "anonymous": false,
      "inputs": [
        {
          "indexed": false,
          "internalType": "string",
          "name": "status",
          "type": "string"
        },
        {
          "indexed": false,
          "internalType": "string",
          "name": "location",
          "type": "string"
        }
      ],
      "name": "locationChanged",
      "type": "event"
    },
    {
      "anonymous": false,
      "inputs": [
        {
          "indexed": false,
          "internalType": "uint256",
          "name": "id",
          "type": "uint256"
        },
        {
          "indexed": false,
          "internalType": "string",
          "name": "sku",
          "type": "string"
        },
        {
          "indexed": false,
          "internalType": "string",
          "name": "status",
          "type": "string"
        },
        {
          "indexed": false,
          "internalType": "string",
          "name": "location",
          "type": "string"
        },
        {
          "indexed": false,
          "internalType": "uint256",
          "name": "timestamp",
          "type": "uint256"
        },
        {
          "indexed": false,
          "internalType": "bool",
          "name": "exist",
          "type": "bool"
        }
      ],
      "name": "startItemEvent",
      "type": "event"
    },
    {
      "inputs": [],
      "name": "itemCount",
      "outputs": [
        {
          "internalType": "uint256",
          "name": "",
          "type": "uint256"
        }
      ],
      "stateMutability": "view",
      "type": "function",
      "constant": true
    },
    {
      "inputs": [
        {
          "internalType": "string",
          "name": "_sku",
          "type": "string"
        }
      ],
      "name": "startItemTranpost",
      "outputs": [],
      "stateMutability": "nonpayable",
      "type": "function"
    },
    {
      "inputs": [
        {
          "internalType": "uint256",
          "name": "itemID",
          "type": "uint256"
        }
      ],
      "name": "getItem",
      "outputs": [
        {
          "internalType": "uint256",
          "name": "id",
          "type": "uint256"
        },
        {
          "internalType": "string",
          "name": "sku",
          "type": "string"
        },
        {
          "internalType": "string",
          "name": "status",
          "type": "string"
        },
        {
          "internalType": "string",
          "name": "location",
          "type": "string"
        },
        {
          "internalType": "uint256",
          "name": "timestamp",
          "type": "uint256"
        }
      ],
      "stateMutability": "view",
      "type": "function",
      "constant": true
    },
    {
      "inputs": [
        {
          "internalType": "uint256",
          "name": "itemID",
          "type": "uint256"
        },
        {
          "internalType": "string",
          "name": "city",
          "type": "string"
        }
      ],
      "name": "changeItemLocation",
      "outputs": [],
      "stateMutability": "nonpayable",
      "type": "function"
    },
    {
      "inputs": [
        {
          "internalType": "uint256",
          "name": "itemID",
          "type": "uint256"
        },
        {
          "internalType": "string",
          "name": "city",
          "type": "string"
        }
      ],
      "name": "deliverItem",
      "outputs": [],
      "stateMutability": "nonpayable",
      "type": "function"
    },
    {
      "inputs": [
        {
          "internalType": "uint256",
          "name": "itemID",
          "type": "uint256"
        }
      ],
      "name": "getItemStatus",
      "outputs": [
        {
          "internalType": "string",
          "name": "status",
          "type": "string"
        }
      ],
      "stateMutability": "view",
      "type": "function",
      "constant": true
    },
    {
      "inputs": [
        {
          "internalType": "uint256",
          "name": "itemID",
          "type": "uint256"
        }
      ],
      "name": "getItemLocation",
      "outputs": [
        {
          "internalType": "string",
          "name": "location",
          "type": "string"
        }
      ],
      "stateMutability": "view",
      "type": "function",
      "constant": true
    }
  ],
  "bytecode": "0x60806040526000805534801561001457600080fd5b5061142d806100246000396000f3fe608060405234801561001057600080fd5b506004361061009a576000357c0100000000000000000000000000000000000000000000000000000000900480635d9c2c18116100785780635d9c2c181461034c5780636bfb0d01146103f35780636d37d201146104115780637d0d278b146104d65761009a565b80633129e7731461009f5780633bae4de81461022c57806353e72a1a146102d3575b600080fd5b6100cb600480360360208110156100b557600080fd5b810190808035906020019092919050505061059b565b60405180868152602001806020018060200180602001858152602001848103845288818151815260200191508051906020019080838360005b8381101561011f578082015181840152602081019050610104565b50505050905090810190601f16801561014c5780820380516001836020036101000a031916815260200191505b50848103835287818151815260200191508051906020019080838360005b8381101561018557808201518184015260208101905061016a565b50505050905090810190601f1680156101b25780820380516001836020036101000a031916815260200191505b50848103825286818151815260200191508051906020019080838360005b838110156101eb5780820151818401526020810190506101d0565b50505050905090810190601f1680156102185780820380516001836020036101000a031916815260200191505b509850505050505050505060405180910390f35b6102586004803603602081101561024257600080fd5b810190808035906020019092919050505061084f565b6040518080602001828103825283818151815260200191508051906020019080838360005b8381101561029857808201518184015260208101905061027d565b50505050905090810190601f1680156102c55780820380516001836020036101000a031916815260200191505b509250505060405180910390f35b61034a600480360360208110156102e957600080fd5b810190808035906020019064010000000081111561030657600080fd5b82018360208201111561031857600080fd5b8035906020019184600183028401116401000000008311171561033a57600080fd5b909192939192939050505061099d565b005b6103786004803603602081101561036257600080fd5b8101908080359060200190929190505050610cc2565b6040518080602001828103825283818151815260200191508051906020019080838360005b838110156103b857808201518184015260208101905061039d565b50505050905090810190601f1680156103e55780820380516001836020036101000a031916815260200191505b509250505060405180910390f35b6103fb610e10565b6040518082815260200191505060405180910390f35b6104d46004803603604081101561042757600080fd5b81019080803590602001909291908035906020019064010000000081111561044e57600080fd5b82018360208201111561046057600080fd5b8035906020019184600183028401116401000000008311171561048257600080fd5b91908080601f016020809104026020016040519081016040528093929190818152602001838380828437600081840152601f19601f820116905080830192505050505050509192919290505050610e16565b005b610599600480360360408110156104ec57600080fd5b81019080803590602001909291908035906020019064010000000081111561051357600080fd5b82018360208201111561052557600080fd5b8035906020019184600183028401116401000000008311171561054757600080fd5b91908080601f016020809104026020016040519081016040528093929190818152602001838380828437600081840152601f19601f820116905080830192505050505050509192919290505050611081565b005b6000606080606060006001600087815260200190815260200160002060050160009054906101000a900460ff1661063a576040517f08c379a000000000000000000000000000000000000000000000000000000000815260040180806020018281038252600e8152602001807f4974656d204e6f7420466f756e6400000000000000000000000000000000000081525060200191505060405180910390fd5b600060016000888152602001908152602001600020905080600001548160010182600201836003018460040154838054600181600116156101000203166002900480601f0160208091040260200160405190810160405280929190818152602001828054600181600116156101000203166002900480156106fc5780601f106106d1576101008083540402835291602001916106fc565b820191906000526020600020905b8154815290600101906020018083116106df57829003601f168201915b50505050509350828054600181600116156101000203166002900480601f0160208091040260200160405190810160405280929190818152602001828054600181600116156101000203166002900480156107985780601f1061076d57610100808354040283529160200191610798565b820191906000526020600020905b81548152906001019060200180831161077b57829003601f168201915b50505050509250818054600181600116156101000203166002900480601f0160208091040260200160405190810160405280929190818152602001828054600181600116156101000203166002900480156108345780601f1061080957610100808354040283529160200191610834565b820191906000526020600020905b81548152906001019060200180831161081757829003601f168201915b50505050509150955095509550955095505091939590929450565b60606001600083815260200190815260200160002060050160009054906101000a900460ff166108e7576040517f08c379a000000000000000000000000000000000000000000000000000000000815260040180806020018281038252600e8152602001807f4974656d204e6f7420466f756e6400000000000000000000000000000000000081525060200191505060405180910390fd5b600160008381526020019081526020016000206002018054600181600116156101000203166002900480601f0160208091040260200160405190810160405280929190818152602001828054600181600116156101000203166002900480156109915780601f1061096657610100808354040283529160200191610991565b820191906000526020600020905b81548152906001019060200180831161097457829003601f168201915b50505050509050919050565b6109a56112ec565b6109ad6112fe565b6040518060c00160405280600054815260200184848080601f016020809104026020016040519081016040528093929190818152602001838380828437600081840152601f19601f8201169050808301925050505050505081526020016040518060600160405280602481526020016113d46024913981526020016040518060400160405280600d81526020017f436f75726572204f6666696365000000000000000000000000000000000000008152508152602001428152602001600115158152509050806001600080548152602001908152602001600020600082015181600001556020820151816001019080519060200190610aad929190611336565b506040820151816002019080519060200190610aca929190611336565b506060820151816003019080519060200190610ae7929190611336565b506080820151816004015560a08201518160050160006101000a81548160ff0219169083151502179055509050507f13c17b060097b586f892afbd9d2e0a029a9024488441f8eeae760d319252fb87816000015182602001518360400151846060015185608001518660a00151604051808781526020018060200180602001806020018681526020018515158152602001848103845289818151815260200191508051906020019080838360005b83811015610bb0578082015181840152602081019050610b95565b50505050905090810190601f168015610bdd5780820380516001836020036101000a031916815260200191505b50848103835288818151815260200191508051906020019080838360005b83811015610c16578082015181840152602081019050610bfb565b50505050905090810190601f168015610c435780820380516001836020036101000a031916815260200191505b50848103825287818151815260200191508051906020019080838360005b83811015610c7c578082015181840152602081019050610c61565b50505050905090810190601f168015610ca95780820380516001836020036101000a031916815260200191505b50995050505050505050505060405180910390a1505050565b60606001600083815260200190815260200160002060050160009054906101000a900460ff16610d5a576040517f08c379a000000000000000000000000000000000000000000000000000000000815260040180806020018281038252600e8152602001807f4974656d204e6f7420466f756e6400000000000000000000000000000000000081525060200191505060405180910390fd5b600160008381526020019081526020016000206003018054600181600116156101000203166002900480601f016020809104026020016040519081016040528092919081815260200182805460018160011615610100020316600290048015610e045780601f10610dd957610100808354040283529160200191610e04565b820191906000526020600020905b815481529060010190602001808311610de757829003601f168201915b50505050509050919050565b60005481565b6001600083815260200190815260200160002060050160009054906101000a900460ff16610eac576040517f08c379a000000000000000000000000000000000000000000000000000000000815260040180806020018281038252600e8152602001807f4974656d204e6f7420466f756e6400000000000000000000000000000000000081525060200191505060405180910390fd5b60006001600084815260200190815260200160002090506040518060400160405280600681526020017f4f6e205761790000000000000000000000000000000000000000000000000000815250816002019080519060200190610f10929190611336565b5081816003019080519060200190610f29929190611336565b504281600401819055507f0664a78d12931d4ab35359955b16038d70650f4d3fc215fd78a89baaeab005918160020182600301604051808060200180602001838103835285818154600181600116156101000203166002900481526020019150805460018160011615610100020316600290048015610fe95780601f10610fbe57610100808354040283529160200191610fe9565b820191906000526020600020905b815481529060010190602001808311610fcc57829003601f168201915b505083810382528481815460018160011615610100020316600290048152602001915080546001816001161561010002031660029004801561106c5780601f106110415761010080835404028352916020019161106c565b820191906000526020600020905b81548152906001019060200180831161104f57829003601f168201915b505094505050505060405180910390a1505050565b6001600083815260200190815260200160002060050160009054906101000a900460ff16611117576040517f08c379a000000000000000000000000000000000000000000000000000000000815260040180806020018281038252600e8152602001807f4974656d204e6f7420466f756e6400000000000000000000000000000000000081525060200191505060405180910390fd5b60006001600084815260200190815260200160002090506040518060400160405280600981526020017f44656c697665726564000000000000000000000000000000000000000000000081525081600201908051906020019061117b929190611336565b5081816003019080519060200190611194929190611336565b504281600401819055507f618ffa9a590f24c0897cdfac8c833502aa9221d5ce91346a858d16b0f3df4c6881600201826003016040518080602001806020018381038352858181546001816001161561010002031660029004815260200191508054600181600116156101000203166002900480156112545780601f1061122957610100808354040283529160200191611254565b820191906000526020600020905b81548152906001019060200180831161123757829003601f168201915b50508381038252848181546001816001161561010002031660029004815260200191508054600181600116156101000203166002900480156112d75780601f106112ac576101008083540402835291602001916112d7565b820191906000526020600020905b8154815290600101906020018083116112ba57829003601f168201915b505094505050505060405180910390a1505050565b60016000808282540192505081905550565b6040518060c0016040528060008152602001606081526020016060815260200160608152602001600081526020016000151581525090565b828054600181600116156101000203166002900490600052602060002090601f016020900481019282601f1061137757805160ff19168380011785556113a5565b828001600101855582156113a5579182015b828111156113a4578251825591602001919060010190611389565b5b5090506113b291906113b6565b5090565b5b808211156113cf5760008160009055506001016113b7565b509056fe53656e6420746f205472616e73706f727420436f75726965722066726f6d204275796572a2646970667358221220ec58ed6c7c3a2340873aaa77ad6a6c7c87722e5509386ce7768a1ace693d51d364736f6c63430007010033",
  "source": "// pragma solidity ^0.5.16;\npragma solidity >=0.4.22 <0.9.0;\n/**\nNOTE VERSION SPECIFIED SHOULD BE THE SAME SPECIFIED IN truffle-config.js\n */\ninterface CourierInterface{\nfunction startItemTranpost(string calldata _sku) external;    \nfunction getItemStatus(uint256 itemD) external view returns(string memory status);\nfunction getItemLocation(uint256 itemID) external view returns(string memory location);\n}\n\ncontract BCShopCourier{\n    struct Item{\n        uint256 id;\n        string sku;\n        string status;\n        string location;\n        uint timestamp;\n        bool exists;\n    }\n\n    uint256 public itemCount=0;\n    mapping(uint256 => Item) deliveries;\n    event startItemEvent(\n        uint256 id, \n        string sku,\n        string status,\n        string location,\n        uint timestamp, \n        bool exist);\n\n    event locationChanged(\n        string status,\n        string location\n    );\n    event deliverItemEvent(\n        string status,\n        string location\n    );\n    function increateItemCount() internal{\n        itemCount += 1;\n    }\n    function startItemTranpost(string calldata _sku)external{\n        increateItemCount();\n        Item memory newDelivery = Item(\n            itemCount,\n            _sku,\n            \"Send to Transport Courier from Buyer\",\n            \"Courer Office\",\n            block.timestamp,\n            true\n        );\n        deliveries[itemCount] = newDelivery;\n        emit startItemEvent(\n            newDelivery.id,\n            newDelivery.sku,\n            newDelivery.status,\n            newDelivery.location,\n            newDelivery.timestamp,\n            newDelivery.exists\n        );\n    }\n    function getItem(uint256 itemID) external view returns(\n        uint256 id,\n        string memory sku,\n        string memory status,\n        string memory location,\n        uint timestamp\n    ){\n        require(deliveries[itemID].exists, \"Item Not Found\");\n        Item storage item = deliveries[itemID];\n        return(\n            item.id,\n            item.sku,\n            item.status,\n            item.location,\n            item.timestamp\n        );\n    }\n\n\n    function changeItemLocation(\n        uint256 itemID,\n        string memory city\n    ) external{\n        require(deliveries[itemID].exists, \"Item Not Found\");\n        Item storage item = deliveries[itemID];\n        item.status = \"On Way\";\n        item.location = city;\n        item.timestamp = block.timestamp;\n        emit locationChanged(\n            item.status,\n            item.location\n        );\n    }\n\n    function deliverItem(\n        uint256 itemID,\n        string memory city\n    )external{\n        require(deliveries[itemID].exists, \"Item Not Found\");\n        Item storage item = deliveries[itemID];\n        item.status = \"Delivered\";\n        item.location = city;\n        item.timestamp = block.timestamp;\n        emit deliverItemEvent(\n            item.status,\n            item.location\n        );\n    }\n\n    function getItemStatus(uint256 itemID) external view returns(string memory status){\n        require(deliveries[itemID].exists, \"Item Not Found\");\n        return deliveries[itemID].status;\n    }\n\n    function getItemLocation(uint256 itemID) external view returns(string memory location) {\n        require(deliveries[itemID].exists, \"Item Not Found\");\n        return deliveries[itemID].location;\n    }\n\n}",
  "sourcePath": "/home/goodness/Development/MeshakCryptoProject/growth/client/src/contracts/BCShopCourier.sol",
  "compiler": {
    "name": "solc",
    "version": "0.7.1+commit.f4a555be.Emscripten.clang"
  },
  "schemaVersion": "3.0.23",
  "updatedAt": "2021-01-13T15:01:59.110Z",
  "networkType": "ethereum",
  "devdoc": {
    "kind": "dev",
    "methods": {},
    "version": 1
  },
  "userdoc": {
    "kind": "user",
    "methods": {},
    "version": 1
  }
}