{
  "contractName": "BCShopSeller",
  "abi": [
    {
      "inputs": [
        {
          "internalType": "address",
          "name": "courierContractAddress",
          "type": "address"
        }
      ],
      "stateMutability": "nonpayable",
      "type": "constructor"
    },
    {
      "inputs": [],
      "name": "productCount",
      "outputs": [
        {
          "internalType": "uint256",
          "name": "",
          "type": "uint256"
        }
      ],
      "stateMutability": "view",
      "type": "function"
    },
    {
      "inputs": [],
      "name": "saleCount",
      "outputs": [
        {
          "internalType": "uint256",
          "name": "",
          "type": "uint256"
        }
      ],
      "stateMutability": "view",
      "type": "function"
    },
    {
      "stateMutability": "payable",
      "type": "receive"
    },
    {
      "inputs": [
        {
          "internalType": "string",
          "name": "_sku",
          "type": "string"
        },
        {
          "internalType": "string",
          "name": "_name",
          "type": "string"
        },
        {
          "internalType": "string",
          "name": "_image",
          "type": "string"
        },
        {
          "internalType": "uint256",
          "name": "_price",
          "type": "uint256"
        }
      ],
      "name": "addProduct",
      "outputs": [],
      "stateMutability": "nonpayable",
      "type": "function"
    },
    {
      "inputs": [
        {
          "internalType": "uint256",
          "name": "productID",
          "type": "uint256"
        }
      ],
      "name": "getProduct",
      "outputs": [
        {
          "internalType": "uint256",
          "name": "id",
          "type": "uint256"
        },
        {
          "internalType": "string",
          "name": "sku",
          "type": "string"
        },
        {
          "internalType": "string",
          "name": "name",
          "type": "string"
        },
        {
          "internalType": "string",
          "name": "image",
          "type": "string"
        },
        {
          "internalType": "uint256",
          "name": "price",
          "type": "uint256"
        },
        {
          "internalType": "address",
          "name": "seller",
          "type": "address"
        }
      ],
      "stateMutability": "view",
      "type": "function"
    },
    {
      "inputs": [
        {
          "internalType": "uint256",
          "name": "productID",
          "type": "uint256"
        },
        {
          "internalType": "uint256",
          "name": "saleID",
          "type": "uint256"
        }
      ],
      "name": "sendProductToCourier",
      "outputs": [],
      "stateMutability": "nonpayable",
      "type": "function"
    },
    {
      "inputs": [
        {
          "internalType": "uint256",
          "name": "productID",
          "type": "uint256"
        }
      ],
      "name": "addSale",
      "outputs": [],
      "stateMutability": "nonpayable",
      "type": "function"
    },
    {
      "inputs": [
        {
          "internalType": "uint256",
          "name": "saleID",
          "type": "uint256"
        }
      ],
      "name": "getSale",
      "outputs": [
        {
          "internalType": "uint256",
          "name": "id",
          "type": "uint256"
        },
        {
          "internalType": "string",
          "name": "sku",
          "type": "string"
        },
        {
          "internalType": "string",
          "name": "status",
          "type": "string"
        },
        {
          "internalType": "address",
          "name": "buyer",
          "type": "address"
        },
        {
          "internalType": "address",
          "name": "seller",
          "type": "address"
        }
      ],
      "stateMutability": "view",
      "type": "function"
    },
    {
      "inputs": [
        {
          "internalType": "uint256",
          "name": "saleID",
          "type": "uint256"
        }
      ],
      "name": "getSaleStatus",
      "outputs": [
        {
          "internalType": "string",
          "name": "status",
          "type": "string"
        }
      ],
      "stateMutability": "view",
      "type": "function"
    },
    {
      "inputs": [
        {
          "internalType": "uint256",
          "name": "saleID",
          "type": "uint256"
        }
      ],
      "name": "buyerReceiveProduct",
      "outputs": [],
      "stateMutability": "nonpayable",
      "type": "function"
    }
  ],
  "bytecode": "0x608060405260008055600060015534801561001957600080fd5b50604051611b99380380611b998339818101604052602081101561003c57600080fd5b810190808051906020019092919050505080600460006101000a81548173ffffffffffffffffffffffffffffffffffffffff021916908373ffffffffffffffffffffffffffffffffffffffff16021790555050611afb8061009e6000396000f3fe6080604052600436106100a7576000357c010000000000000000000000000000000000000000000000000000000090048063b9db15b411610076578063b9db15b41461035e578063d254d2c614610515578063d7e90306146105c9578063d8f6d59614610604578063e0f6ef8714610765576100ae565b806359086b5e146100b35780637f4c7c29146100f85780638165fed514610133578063a1e89aec14610333576100ae565b366100ae57005b600080fd5b3480156100bf57600080fd5b506100f6600480360360408110156100d657600080fd5b810190808035906020019092919080359060200190929190505050610790565b005b34801561010457600080fd5b506101316004803603602081101561011b57600080fd5b8101908080359060200190929190505050610b31565b005b34801561013f57600080fd5b506103316004803603608081101561015657600080fd5b810190808035906020019064010000000081111561017357600080fd5b82018360208201111561018557600080fd5b803590602001918460018302840111640100000000831117156101a757600080fd5b91908080601f016020809104026020016040519081016040528093929190818152602001838380828437600081840152601f19601f8201169050808301925050505050505091929192908035906020019064010000000081111561020a57600080fd5b82018360208201111561021c57600080fd5b8035906020019184600183028401116401000000008311171561023e57600080fd5b91908080601f016020809104026020016040519081016040528093929190818152602001838380828437600081840152601f19601f820116905080830192505050505050509192919290803590602001906401000000008111156102a157600080fd5b8201836020820111156102b357600080fd5b803590602001918460018302840111640100000000831117156102d557600080fd5b91908080601f016020809104026020016040519081016040528093929190818152602001838380828437600081840152601f19601f82011690508083019250505050505050919291929080359060200190929190505050610e67565b005b34801561033f57600080fd5b50610348610fb8565b6040518082815260200191505060405180910390f35b34801561036a57600080fd5b506103976004803603602081101561038157600080fd5b8101908080359060200190929190505050610fbe565b604051808781526020018060200180602001806020018681526020018573ffffffffffffffffffffffffffffffffffffffff168152602001848103845289818151815260200191508051906020019080838360005b838110156104075780820151818401526020810190506103ec565b50505050905090810190601f1680156104345780820380516001836020036101000a031916815260200191505b50848103835288818151815260200191508051906020019080838360005b8381101561046d578082015181840152602081019050610452565b50505050905090810190601f16801561049a5780820380516001836020036101000a031916815260200191505b50848103825287818151815260200191508051906020019080838360005b838110156104d35780820151818401526020810190506104b8565b50505050905090810190601f1680156105005780820380516001836020036101000a031916815260200191505b50995050505050505050505060405180910390f35b34801561052157600080fd5b5061054e6004803603602081101561053857600080fd5b810190808035906020019092919050505061129a565b6040518080602001828103825283818151815260200191508051906020019080838360005b8381101561058e578082015181840152602081019050610573565b50505050905090810190601f1680156105bb5780820380516001836020036101000a031916815260200191505b509250505060405180910390f35b3480156105d557600080fd5b50610602600480360360208110156105ec57600080fd5b81019080803590602001909291905050506114b3565b005b34801561061057600080fd5b5061063d6004803603602081101561062757600080fd5b81019080803590602001909291905050506116e6565b6040518086815260200180602001806020018573ffffffffffffffffffffffffffffffffffffffff1681526020018473ffffffffffffffffffffffffffffffffffffffff168152602001838103835287818151815260200191508051906020019080838360005b838110156106bf5780820151818401526020810190506106a4565b50505050905090810190601f1680156106ec5780820380516001836020036101000a031916815260200191505b50838103825286818151815260200191508051906020019080838360005b8381101561072557808201518184015260208101905061070a565b50505050905090810190601f1680156107525780820380516001836020036101000a031916815260200191505b5097505050505050505060405180910390f35b34801561077157600080fd5b5061077a61193e565b6040518082815260200191505060405180910390f35b6002600083815260200190815260200160002060050160009054906101000a900460ff16610826576040517f08c379a00000000000000000000000000000000000000000000000000000000081526004018080602001828103825260118152602001807f50726f64756374204e6f7420466f756e6400000000000000000000000000000081525060200191505060405180910390fd5b6003600082815260200190815260200160002060040160149054906101000a900460ff166108bc576040517f08c379a00000000000000000000000000000000000000000000000000000000081526004018080602001828103825260158152602001807f5472616e73616374696f6e204e6f7420466f756e64000000000000000000000081525060200191505060405180910390fd5b60006002600084815260200190815260200160002090508060050160019054906101000a900473ffffffffffffffffffffffffffffffffffffffff1673ffffffffffffffffffffffffffffffffffffffff163373ffffffffffffffffffffffffffffffffffffffff1614610998576040517f08c379a000000000000000000000000000000000000000000000000000000000815260040180806020018281038252601c8152602001807f50726f647563742053656c6c6572204f6e6c792046756e6374696f6e0000000081525060200191505060405180910390fd5b6000600460009054906101000a900473ffffffffffffffffffffffffffffffffffffffff1690508073ffffffffffffffffffffffffffffffffffffffff166353e72a1a836001016040518263ffffffff167c01000000000000000000000000000000000000000000000000000000000281526004018080602001828103825283818154600181600116156101000203166002900481526020019150805460018160011615610100020316600290048015610a935780601f10610a6857610100808354040283529160200191610a93565b820191906000526020600020905b815481529060010190602001808311610a7657829003601f168201915b505092505050600060405180830381600087803b158015610ab357600080fd5b505af1158015610ac7573d6000803e3d6000fd5b505050506040518060400160405280600a81526020017f496e205472616e73697400000000000000000000000000000000000000000000815250600360008581526020019081526020016000206002019080519060200190610b2a929190611968565b5050505050565b6002600082815260200190815260200160002060050160009054906101000a900460ff16610bc7576040517f08c379a00000000000000000000000000000000000000000000000000000000081526004018080602001828103825260118152602001807f50726f64756374204e6f7420466f756e6400000000000000000000000000000081525060200191505060405180910390fd5b6000600260008381526020019081526020016000209050610be6611944565b610bee6119e8565b6040518060e001604052806001548152602001836001018054600181600116156101000203166002900480601f016020809104026020016040519081016040528092919081815260200182805460018160011615610100020316600290048015610c995780601f10610c6e57610100808354040283529160200191610c99565b820191906000526020600020905b815481529060010190602001808311610c7c57829003601f168201915b505050505081526020016040518060400160405280600481526020017f50616964000000000000000000000000000000000000000000000000000000008152508152602001836004015481526020013273ffffffffffffffffffffffffffffffffffffffff1681526020016001151581526020018360050160019054906101000a900473ffffffffffffffffffffffffffffffffffffffff1673ffffffffffffffffffffffffffffffffffffffff16815250905080600360006001548152602001908152602001600020600082015181600001556020820151816001019080519060200190610d89929190611968565b506040820151816002019080519060200190610da6929190611968565b506060820151816003015560808201518160040160006101000a81548173ffffffffffffffffffffffffffffffffffffffff021916908373ffffffffffffffffffffffffffffffffffffffff16021790555060a08201518160040160146101000a81548160ff02191690831515021790555060c08201518160050160006101000a81548173ffffffffffffffffffffffffffffffffffffffff021916908373ffffffffffffffffffffffffffffffffffffffff160217905550905050505050565b610e6f611956565b610e77611a53565b6040518060e0016040528060005481526020018681526020018581526020018481526020018381526020016001151581526020013373ffffffffffffffffffffffffffffffffffffffff168152509050806002600080548152602001908152602001600020600082015181600001556020820151816001019080519060200190610f02929190611968565b506040820151816002019080519060200190610f1f929190611968565b506060820151816003019080519060200190610f3c929190611968565b506080820151816004015560a08201518160050160006101000a81548160ff02191690831515021790555060c08201518160050160016101000a81548173ffffffffffffffffffffffffffffffffffffffff021916908373ffffffffffffffffffffffffffffffffffffffff1602179055509050505050505050565b60015481565b600060608060606000806002600088815260200190815260200160002060050160009054906101000a900460ff1661105e576040517f08c379a00000000000000000000000000000000000000000000000000000000081526004018080602001828103825260118152602001807f50726f64756374204e6f7420466f756e6400000000000000000000000000000081525060200191505060405180910390fd5b6000600260008981526020019081526020016000209050806000015481600101826002018360030184600401548560050160019054906101000a900473ffffffffffffffffffffffffffffffffffffffff16848054600181600116156101000203166002900480601f0160208091040260200160405190810160405280929190818152602001828054600181600116156101000203166002900480156111455780601f1061111a57610100808354040283529160200191611145565b820191906000526020600020905b81548152906001019060200180831161112857829003601f168201915b50505050509450838054600181600116156101000203166002900480601f0160208091040260200160405190810160405280929190818152602001828054600181600116156101000203166002900480156111e15780601f106111b6576101008083540402835291602001916111e1565b820191906000526020600020905b8154815290600101906020018083116111c457829003601f168201915b50505050509350828054600181600116156101000203166002900480601f01602080910402602001604051908101604052809291908181526020018280546001816001161561010002031660029004801561127d5780601f106112525761010080835404028352916020019161127d565b820191906000526020600020905b81548152906001019060200180831161126057829003601f168201915b505050505092509650965096509650965096505091939550919395565b60606003600083815260200190815260200160002060040160149054906101000a900460ff16611332576040517f08c379a00000000000000000000000000000000000000000000000000000000081526004018080602001828103825260158152602001807f5472616e73616374696f6e204e6f7420466f756e64000000000000000000000081525060200191505060405180910390fd5b60006003600084815260200190815260200160002090508060040160009054906101000a900473ffffffffffffffffffffffffffffffffffffffff1673ffffffffffffffffffffffffffffffffffffffff163273ffffffffffffffffffffffffffffffffffffffff161461140e576040517f08c379a000000000000000000000000000000000000000000000000000000000815260040180806020018281038252601b8152602001807f50726f64756374204275796572204f6e6c792046756e6374696f6e000000000081525060200191505060405180910390fd5b806002018054600181600116156101000203166002900480601f0160208091040260200160405190810160405280929190818152602001828054600181600116156101000203166002900480156114a65780601f1061147b576101008083540402835291602001916114a6565b820191906000526020600020905b81548152906001019060200180831161148957829003601f168201915b5050505050915050919050565b6003600082815260200190815260200160002060040160149054906101000a900460ff16611549576040517f08c379a00000000000000000000000000000000000000000000000000000000081526004018080602001828103825260158152602001807f5472616e73616374696f6e204e6f7420466f756e64000000000000000000000081525060200191505060405180910390fd5b60006003600083815260200190815260200160002090508060040160009054906101000a900473ffffffffffffffffffffffffffffffffffffffff1673ffffffffffffffffffffffffffffffffffffffff163273ffffffffffffffffffffffffffffffffffffffff1614611625576040517f08c379a000000000000000000000000000000000000000000000000000000000815260040180806020018281038252601b8152602001807f50726f64756374204275796572204f6e6c792046756e6374696f6e000000000081525060200191505060405180910390fd5b8060050160009054906101000a900473ffffffffffffffffffffffffffffffffffffffff1673ffffffffffffffffffffffffffffffffffffffff166108fc82600301549081150290604051600060405180830381858888f19350505050158015611693573d6000803e3d6000fd5b506040518060400160405280600981526020017f44656c69766572656400000000000000000000000000000000000000000000008152508160020190805190602001906116e1929190611968565b505050565b60006060806000806003600087815260200190815260200160002060040160149054906101000a900460ff16611784576040517f08c379a00000000000000000000000000000000000000000000000000000000081526004018080602001828103825260158152602001807f5472616e73616374696f6e204e6f7420466f756e64000000000000000000000081525060200191505060405180910390fd5b6000600360008881526020019081526020016000209050806000015481600101826002018360040160009054906101000a900473ffffffffffffffffffffffffffffffffffffffff168460050160009054906101000a900473ffffffffffffffffffffffffffffffffffffffff16838054600181600116156101000203166002900480601f0160208091040260200160405190810160405280929190818152602001828054600181600116156101000203166002900480156118875780601f1061185c57610100808354040283529160200191611887565b820191906000526020600020905b81548152906001019060200180831161186a57829003601f168201915b50505050509350828054600181600116156101000203166002900480601f0160208091040260200160405190810160405280929190818152602001828054600181600116156101000203166002900480156119235780601f106118f857610100808354040283529160200191611923565b820191906000526020600020905b81548152906001019060200180831161190657829003601f168201915b50505050509250955095509550955095505091939590929450565b60005481565b60018060008282540192505081905550565b60016000808282540192505081905550565b828054600181600116156101000203166002900490600052602060002090601f016020900481019282601f106119a957805160ff19168380011785556119d7565b828001600101855582156119d7579182015b828111156119d65782518255916020019190600101906119bb565b5b5090506119e49190611aa8565b5090565b6040518060e0016040528060008152602001606081526020016060815260200160008152602001600073ffffffffffffffffffffffffffffffffffffffff168152602001600015158152602001600073ffffffffffffffffffffffffffffffffffffffff1681525090565b6040518060e001604052806000815260200160608152602001606081526020016060815260200160008152602001600015158152602001600073ffffffffffffffffffffffffffffffffffffffff1681525090565b5b80821115611ac1576000816000905550600101611aa9565b509056fea264697066735822122025f95b61e15f7d8f5f6554004c4ad327b42caacd82cedf05f7ebbf10b4661d2864736f6c63430007010033",
  "source": "pragma solidity >=0.4.22 <0.9.0;\nimport './BCShopCourier.sol';\n\ninterface SellerInterface{\n    function addSale(uint256 productID) external;\n    function buyerReceiveProduct(uint256 saleID)external;\n    function getProductPrice(uint256 productID) external view returns(uint256 price);\n    function getSaleStatus(uint256 saleID) external view returns(string memory status);\n}\n\ncontract BCShopSeller{\n    struct Product{\n        uint256 id;\n        string sku;\n        string name;\n        string image;\n        uint256 price;\n        bool exists;\n        address payable seller;\n    }\n\n    struct Sale{\n        uint256 id;\n        string sku;\n        string status;\n        uint256 amount;\n        address buyer;\n        bool exists;\n        address payable seller;\n    }\n\n    uint256 public productCount = 0;\n    uint256 public saleCount=0;\n    mapping(uint256 => Product) products;\n    mapping(uint256 => Sale) transactions;\n\n    address courierAddress;\n\n    constructor(address courierContractAddress) {\n        courierAddress = courierContractAddress;\n    }\n    receive () external payable {}\n    \n    function increaseProductCount() internal {\n        productCount += 1;\n    }\n    \n    function increaseSaleCount() internal {\n        saleCount += 1;\n    }\n\n    function addProduct(\n        string memory _sku,\n        string memory _name,\n        string memory _image,\n        uint256 _price\n    )public{\n        increaseProductCount();\n        Product memory newProduct = Product(\n            productCount,\n            _sku,\n            _name,\n            _image,\n            _price,\n            true,\n            msg.sender\n        );\n        products[productCount] = newProduct;\n    }\n\n    function getProduct(uint256 productID) external view returns(\n         uint256 id,\n        string memory sku,\n        string memory name,\n        string memory image,\n        uint256 price,\n        address seller\n    ){\n        require(products[productID].exists, \"Product Not Found\");\n        Product storage product = products[productID];\n        return (product.id, product.sku, product.name, product.image, product.price, product.seller);\n    }\n\n    function sendProductToCourier(uint256 productID, uint256 saleID) external {\n        require(products[productID].exists, \"Product Not Found\");\n        require(transactions[saleID].exists, \"Transaction Not Found\");\n        Product storage product = products[productID];\n        require(msg.sender == product.seller, \"Product Seller Only Function\");\n        CourierInterface CourierContract = CourierInterface(address(courierAddress));\n        CourierContract.startItemTranpost(product.sku);\n        transactions[saleID].status = \"In Transit\";\n    }\n    function addSale(uint256 productID) external {\n        require(products[productID].exists, \"Product Not Found\");\n        Product storage product = products[productID];\n        increaseSaleCount();\n        Sale memory newSale = Sale(saleCount, product.sku, \"Paid\", product.price, tx.origin, true,\n        product.seller);\n        transactions[saleCount] = newSale;\n    }\n    function getSale(uint256 saleID) external view returns(uint256 id, string memory sku, string\n        memory status, address buyer, address seller) {\n        require(transactions[saleID].exists, \"Transaction Not Found\");\n        Sale storage purchase = transactions[saleID];\n        return (purchase.id, purchase.sku, purchase.status, purchase.buyer, purchase.seller);\n    }\n\n    function getSaleStatus(uint256 saleID) external view returns(string memory status) {\n        require(transactions[saleID].exists, \"Transaction Not Found\");\n        Sale storage purchase = transactions[saleID];require(tx.origin == purchase.buyer, \"Product Buyer Only Function\");\n        return purchase.status;\n        }\n    function buyerReceiveProduct(uint256 saleID) external {\n        require(transactions[saleID].exists, \"Transaction Not Found\");\n        Sale storage purchase = transactions[saleID];\n        require(tx.origin == purchase.buyer, \"Product Buyer Only Function\");\n        purchase.seller.transfer(purchase.amount);\n        purchase.status = \"Delivered\";\n        }\n}",
  "sourcePath": "/home/goodness/Development/MeshakCryptoProject/growth/client/src/contracts/BCShopSeller.sol",
  "compiler": {
    "name": "solc",
    "version": "0.7.1+commit.f4a555be.Emscripten.clang"
  },
  "schemaVersion": "3.0.23",
  "updatedAt": "2021-01-13T15:15:09.932Z",
  "devdoc": {
    "kind": "dev",
    "methods": {},
    "version": 1
  },
  "userdoc": {
    "kind": "user",
    "methods": {},
    "version": 1
  }
}