{
  "contractName": "BCShopBuyer",
  "abi": [
    {
      "inputs": [
        {
          "internalType": "address payable",
          "name": "_sellerAddress",
          "type": "address"
        },
        {
          "internalType": "address",
          "name": "courierAddress",
          "type": "address"
        }
      ],
      "stateMutability": "nonpayable",
      "type": "constructor"
    },
    {
      "inputs": [
        {
          "internalType": "uint256",
          "name": "productID",
          "type": "uint256"
        }
      ],
      "name": "depositProductPurchase",
      "outputs": [],
      "stateMutability": "payable",
      "type": "function"
    },
    {
      "inputs": [
        {
          "internalType": "uint256",
          "name": "saleID",
          "type": "uint256"
        }
      ],
      "name": "receiveItem",
      "outputs": [],
      "stateMutability": "nonpayable",
      "type": "function"
    },
    {
      "inputs": [
        {
          "internalType": "uint256",
          "name": "saleID",
          "type": "uint256"
        }
      ],
      "name": "checkItemStatus",
      "outputs": [
        {
          "internalType": "string",
          "name": "status",
          "type": "string"
        }
      ],
      "stateMutability": "view",
      "type": "function"
    },
    {
      "inputs": [
        {
          "internalType": "uint256",
          "name": "itemID",
          "type": "uint256"
        }
      ],
      "name": "checkCourierStatus",
      "outputs": [
        {
          "internalType": "string",
          "name": "status",
          "type": "string"
        }
      ],
      "stateMutability": "view",
      "type": "function"
    },
    {
      "inputs": [
        {
          "internalType": "uint256",
          "name": "itemID",
          "type": "uint256"
        }
      ],
      "name": "checkCourierLocation",
      "outputs": [
        {
          "internalType": "string",
          "name": "location",
          "type": "string"
        }
      ],
      "stateMutability": "view",
      "type": "function"
    }
  ],
  "bytecode": "0x608060405234801561001057600080fd5b50604051610c9d380380610c9d8339818101604052604081101561003357600080fd5b810190808051906020019092919080519060200190929190505050816000806101000a81548173ffffffffffffffffffffffffffffffffffffffff021916908373ffffffffffffffffffffffffffffffffffffffff16021790555081600160006101000a81548173ffffffffffffffffffffffffffffffffffffffff021916908373ffffffffffffffffffffffffffffffffffffffff16021790555080600260006101000a81548173ffffffffffffffffffffffffffffffffffffffff021916908373ffffffffffffffffffffffffffffffffffffffff1602179055505050610b7c806101216000396000f3fe608060405260043610610067576000357c0100000000000000000000000000000000000000000000000000000000900480631b2741251461006c5780632c28c76814610120578063a26be9991461014e578063b51f1dc214610189578063e8bd82b41461023d575b600080fd5b34801561007857600080fd5b506100a56004803603602081101561008f57600080fd5b81019080803590602001909291905050506102f1565b6040518080602001828103825283818151815260200191508051906020019080838360005b838110156100e55780820151818401526020810190506100ca565b50505050905090810190601f1680156101125780820380516001836020036101000a031916815260200191505b509250505060405180910390f35b61014c6004803603602081101561013657600080fd5b8101908080359060200190929190505050610482565b005b34801561015a57600080fd5b506101876004803603602081101561017157600080fd5b8101908080359060200190929190505050610753565b005b34801561019557600080fd5b506101c2600480360360208110156101ac57600080fd5b81019080803590602001909291905050506107ff565b6040518080602001828103825283818151815260200191508051906020019080838360005b838110156102025780820151818401526020810190506101e7565b50505050905090810190601f16801561022f5780820380516001836020036101000a031916815260200191505b509250505060405180910390f35b34801561024957600080fd5b506102766004803603602081101561026057600080fd5b8101908080359060200190929190505050610990565b6040518080602001828103825283818151815260200191508051906020019080838360005b838110156102b657808201518184015260208101905061029b565b50505050905090810190601f1680156102e35780820380516001836020036101000a031916815260200191505b509250505060405180910390f35b6060600260009054906101000a900473ffffffffffffffffffffffffffffffffffffffff1673ffffffffffffffffffffffffffffffffffffffff16633bae4de8836040518263ffffffff167c01000000000000000000000000000000000000000000000000000000000281526004018082815260200191505060006040518083038186803b15801561038257600080fd5b505afa158015610396573d6000803e3d6000fd5b505050506040513d6000823e3d601f19601f8201168201806040525060208110156103c057600080fd5b81019080805160405193929190846401000000008211156103e057600080fd5b838201915060208201858111156103f657600080fd5b825186600182028301116401000000008211171561041357600080fd5b8083526020830192505050908051906020019080838360005b8381101561044757808201518184015260208101905061042c565b50505050905090810190601f1680156104745780820380516001836020036101000a031916815260200191505b506040525050509050919050565b6000600160009054906101000a900473ffffffffffffffffffffffffffffffffffffffff1673ffffffffffffffffffffffffffffffffffffffff1663e7bf7dfc836040518263ffffffff167c01000000000000000000000000000000000000000000000000000000000281526004018082815260200191505060206040518083038186803b15801561051357600080fd5b505afa158015610527573d6000803e3d6000fd5b505050506040513d602081101561053d57600080fd5b810190808051906020019092919050505090508034146105a8576040517f08c379a0000000000000000000000000000000000000000000000000000000008152600401808060200182810382526025815260200180610b226025913960400191505060405180910390fd5b60008060009054906101000a900473ffffffffffffffffffffffffffffffffffffffff1673ffffffffffffffffffffffffffffffffffffffff163460405180600001905060006040518083038185875af1925050503d8060008114610629576040519150601f19603f3d011682016040523d82523d6000602084013e61062e565b606091505b50509050806106a5576040517f08c379a00000000000000000000000000000000000000000000000000000000081526004018080602001828103825260208152602001807f50726f64756374204465706f736974205472616e73666572204661696c65642e81525060200191505060405180910390fd5b600160009054906101000a900473ffffffffffffffffffffffffffffffffffffffff1673ffffffffffffffffffffffffffffffffffffffff16637f4c7c29846040518263ffffffff167c010000000000000000000000000000000000000000000000000000000002815260040180828152602001915050600060405180830381600087803b15801561073657600080fd5b505af115801561074a573d6000803e3d6000fd5b50505050505050565b600160009054906101000a900473ffffffffffffffffffffffffffffffffffffffff1673ffffffffffffffffffffffffffffffffffffffff1663d7e90306826040518263ffffffff167c010000000000000000000000000000000000000000000000000000000002815260040180828152602001915050600060405180830381600087803b1580156107e457600080fd5b505af11580156107f8573d6000803e3d6000fd5b5050505050565b6060600160009054906101000a900473ffffffffffffffffffffffffffffffffffffffff1673ffffffffffffffffffffffffffffffffffffffff1663d254d2c6836040518263ffffffff167c01000000000000000000000000000000000000000000000000000000000281526004018082815260200191505060006040518083038186803b15801561089057600080fd5b505afa1580156108a4573d6000803e3d6000fd5b505050506040513d6000823e3d601f19601f8201168201806040525060208110156108ce57600080fd5b81019080805160405193929190846401000000008211156108ee57600080fd5b8382019150602082018581111561090457600080fd5b825186600182028301116401000000008211171561092157600080fd5b8083526020830192505050908051906020019080838360005b8381101561095557808201518184015260208101905061093a565b50505050905090810190601f1680156109825780820380516001836020036101000a031916815260200191505b506040525050509050919050565b6060600260009054906101000a900473ffffffffffffffffffffffffffffffffffffffff1673ffffffffffffffffffffffffffffffffffffffff16635d9c2c18836040518263ffffffff167c01000000000000000000000000000000000000000000000000000000000281526004018082815260200191505060006040518083038186803b158015610a2157600080fd5b505afa158015610a35573d6000803e3d6000fd5b505050506040513d6000823e3d601f19601f820116820180604052506020811015610a5f57600080fd5b8101908080516040519392919084640100000000821115610a7f57600080fd5b83820191506020820185811115610a9557600080fd5b8251866001820283011164010000000082111715610ab257600080fd5b8083526020830192505050908051906020019080838360005b83811015610ae6578082015181840152602081019050610acb565b50505050905090810190601f168015610b135780820380516001836020036101000a031916815260200191505b50604052505050905091905056fe416d6f756e74206e6f742065717576616c656e7420746f2070726f64756374205072696365a26469706673582212201c10b9fa129c0110d8472153acf0769be6ca9be67cbb16e853119b20b120134364736f6c63430007010033",
  "source": "pragma solidity >=0.4.22 <0.9.0;\n\nimport './BCShopSeller.sol';\nimport './BCShopCourier.sol';\n\ncontract BCShopBuyer {\naddress payable sellerAddress;\nSellerInterface SellerContract;\nCourierInterface CourierContract;\n    constructor(address payable _sellerAddress, address courierAddress) {\n        sellerAddress = _sellerAddress;\n        SellerContract = SellerInterface(_sellerAddress);\n        CourierContract = CourierInterface(courierAddress);\n    }\n    function depositProductPurchase(uint256 productID) external payable {\n        uint256 price = SellerContract.getProductPrice(productID);\n        require(msg.value == price, \"Amount not equvalent to product Price\");\n        (bool isSuccess, ) = sellerAddress.call{value: msg.value}(\"\");\n        require(isSuccess, \"Product Deposit Transfer Failed.\");\n        SellerContract.addSale(productID);\n    }\n    function receiveItem(uint256 saleID) external {\n        SellerContract.buyerReceiveProduct(saleID);\n    }\n    function checkItemStatus(uint256 saleID) external view returns(string memory status) {\n        return SellerContract.getSaleStatus(saleID);\n    }\n    function checkCourierStatus(uint256 itemID) external view returns(string memory status) {\n        return CourierContract.getItemStatus(itemID);\n    }\n    function checkCourierLocation(uint256 itemID) external view returns(string memory location) {\n        return CourierContract.getItemLocation(itemID);\n    }\n}",
  "sourcePath": "/home/goodness/Development/MeshakCryptoProject/growth/client/src/contracts/BCShopBuyer.sol",
  "compiler": {
    "name": "solc",
    "version": "0.7.1+commit.f4a555be.Emscripten.clang"
  },
  "schemaVersion": "3.0.23",
  "updatedAt": "2021-01-13T15:21:56.665Z",
  "devdoc": {
    "kind": "dev",
    "methods": {},
    "version": 1
  },
  "userdoc": {
    "kind": "user",
    "methods": {},
    "version": 1
  }
}